:020000040000FA
:10000000B0020010690100007101000073010000DE
:100010007501000077010000790100000000000078
:100020000000000000000000000000007B01000054
:100030007D010000000000007F0100008101000040
:10004000830100007D240000830100008301000083
:100050008301000083010000830100008301000090
:100060008301000083010000830100008301000080
:100070008301000083010000830100008301000070
:100080008301000083010000632C00008301000055
:10009000830100008301000021250000830100008E
:1000A0008301000083010000830100008301000040
:1000B0008301000083010000830100008301000030
:1000C00083010000830100008301000000F002F8BA
:1000D00000F03AF80AA090E8000C82448344AAF1A8
:1000E0000107DA4501D100F02FF8AFF2090EBAE8A6
:1000F0000F0013F0010F18BFFB1A43F0010318475C
:10010000342E0000542E0000103A24BF78C878C165
:10011000FAD8520724BF30C830C144BF04680C600D
:10012000704700000023002400250026103A28BF55
:1001300078C1FBD8520728BF30C148BF0B60704759
:100140001FB51FBD10B510BD02F0CFFE1146FFF761
:10015000F7FF02F093FD00F0BAF803B4FFF7F2FFE7
:1001600003BC00F0C1F80000094880470948004777
:10017000FEE7FEE7FEE7FEE7FEE7FEE7FEE7FEE757
:10018000FEE7FEE704480549034A054B70470000B7
:1001900099040000CD000000B0000010B002001073
:1001A000B0000010F0B504460B4615461946600035
:1001B000434A102901D31039401C52F820604FEAFD
:1001C000410C032707FA0CF7BE4342F8206052F8AF
:1001D00020604F0005FA07F73E4342F82060F0BD6B
:1001E000F0B504460B46154619466000344A4032C5
:1001F000102901D31039401C52F820604FEA410CFD
:10020000032707FA0CF7BE4342F8206052F820603B
:100210004F0005FA07F73E4342F82060F0BD30B5C5
:100220000B4627496831012A07D151F820400125A2
:100230009D402C4341F8204006E051F82040012524
:100240009D40AC4341F8204030BD012806D11C49F7
:10025000896A41F008011A4A916206E028B91849F2
:10026000896A21F00801164A91627047012800D17D
:10027000052201B90A22124BDA67704710B504460D
:10028000A27861782078FFF78DFFE2786178207896
:10029000FFF7A6FF227961782078FFF7C0FF10BD35
:1002A0007CB506460C4615468DF80060E0B28DF828
:1002B00001008DF802506846FFF7E0FF7CBD0000AA
:1002C00000C0024000BFFEE770477047704710B59E
:1002D0000446AFF300802046BDE81040FFF73DBF65
:1002E000004870475000001001491820ABBEFEE7DF
:1002F000260002007047000000000000FFFFFFFF23
:100300002DE9F047B3480068C0F3016003287DD1B0
:10031000B0488430006800F0030030B1012830D0CC
:10032000022859D003282BD100E000BFA94800685B
:10033000C0F30740441C0221A6488838D0F8880042
:10034000C0F30E00401CA1FB0001A34B4FF0000CBA
:10035000A0FB037901FB039100FB0C1122466346CD
:10036000384602F04BFD05469A487C300068C0B222
:10037000441C22460023284602F040FD97490860AD
:1003800056E094480068C0F30740441C022191489D
:100390008838D0F88800C0F30E00401CA1FB001084
:1003A0008F4A4FF0000CA1FB027900FB029001FB89
:1003B0000C0122466346384602F020FD054685487A
:1003C0007C300068C0B2441C22460023284602F05C
:1003D00015FD824908602BE07E480068C0F30740A5
:1003E000441C02217B488838D0F88800C0F30E00F6
:1003F000401CA1FB00124FF400400023A1FB007938
:1004000002FB009001FB0301224600E011E03846A8
:1004100002F0F4FC05466F487C300068C0B2441C12
:1004200022460023284602F0E9FC6C49086000BF20
:1004300030E068488430006800F0030030B10128E3
:1004400010D0022819D0032823D100E000BF614852
:100450007C300068C0B2401C5F49B1FBF0F05F49DE
:10046000086016E05B487C300068C0B2401C5C4904
:10047000B1FBF0F0594908600BE056487C30006849
:10048000C0B2401C4FF40041B1FBF0F0534908608A
:1004900000BF00BFBDE8F0872020524908604D48EA
:1004A0008838D0F8A00100F0200030B100BF4D48DE
:1004B000006800F040000028F9D0032045497C3155
:1004C0000860002043498839C1F8A80145490C312A
:1004D000086001203F49843108600B203D49091F15
:1004E0000860AA203B49091D0860552008600120CA
:1004F000384908390860AA203649091D0860552086
:1005000034498839C1F88C0000BF3248006800F0D7
:1005100080600028F9D003202E4908390860AA20FD
:100520002C498839C1F88C0055202A49091D0860DA
:1005300000BF2848006800F04070B0F1407FF8D15B
:10054000232024491C310860AA2022498839C1F897
:10055000AC0055201F492431086001201D49183185
:100560000860AA201B4924310860552019498839A0
:10057000C1F8AC0000BF17482030006800F480606C
:100580000028F8D00320134918310860AA20114927
:100590008839C1F8AC0055200E492431086000BFED
:1005A0000C482030006800F44070B0F5407FF7D16F
:1005B0000D4808493C310860002006498839C1F8D7
:1005C000C8010846006820F4704040F4804008608C
:1005D0007047000088C00F4000093D000000001077
:1005E000001BB700A0C10F40DE8728040146002091
:1005F000052912D2DFE801F00305080B0E00FB48C5
:100600000CE0FA48203009E0F848403006E0F748AE
:10061000603003E0F548803000E000BF00BF704765
:1006200001460020052912D2DFE801F00305080B7E
:100630000E00EE480CE0ED48203009E0EB48403079
:1006400006E0EA48603003E0E848803000E000BFA0
:1006500000BF704701460020052912D2DFE801F0F3
:100660000305080B0E00E1480CE0E048203009E0EB
:10067000DE48403006E0DD48603003E0DB48803093
:1006800000E000BF00BF70472DE9F04107460D466E
:1006900016463846FFF7AAFF04463CB11EB1206853
:1006A0002843206002E02068A8432060BDE8F08174
:1006B00070B506460C463046FFF798FF054605B173
:1006C000AC6170BD70B506460C463046FFF78EFF34
:1006D000054605B1EC6170BD70B505462846FFF7CB
:1006E00085FF04460CB1606970BD0020FCE718B9B5
:1006F00012B9BF4B196017E0022804D11AB9BC4BDC
:100700002033196010E028B9012A03D1B84B1B1D12
:10071000196009E0022805D1012A03D1B44B243322
:10072000196001E000BFFEE7704703463BB932B9EC
:10073000AF480C380068C84000F001007047022B39
:1007400007D132B9AA4814300068C84000F001004F
:10075000F4E743B9012A06D1A54808380068C84023
:1007600000F00100EAE7022B08D1012A06D1A048D7
:1007700018300068C84000F00100DFE700BFFEE766
:1007800018B99B4A121F116007E0022803D1984A4A
:100790001C32116001E000BFFEE7704770B50446EF
:1007A0000D461646324629462046FFF76DFF70BDBE
:1007B00070B504460D4629462046FFF779FF70BD07
:1007C00070B504460D4629462046FFF77BFF70BDF5
:1007D00010B504462046FFF77FFF10BD70B50446F4
:1007E0000D461646324629462046FFF780FF70BD6B
:1007F00070B504460D461646324629462046FFF798
:1008000094FF70BD10B503460C4621461846FFF70D
:10081000B7FF10BD2DE9F04107460D461646384694
:10082000FFF7E4FE04463CB11EB120692843206175
:1008300002E02069A8432061BDE8F0812DE9F04184
:1008400080460E4615461F464046FFF7E9FE044621
:100850008CB147B11EB16088284360800BE02088CE
:100860002843208007E01EB16088A843608002E032
:100870002088A8432080BDE8F0812DE9F041804622
:100880000E4615461F464046FFF7CAFE04468CB189
:1008900047B11EB1608A284360820BE0208A28435A
:1008A000208207E01EB1608AA843608202E0208AAD
:1008B000A8432082BDE8F0812DE9F04107460E46AD
:1008C00014463846FFF7ACFE05461DB10EB16C83E9
:1008D00000E02C83BDE8F0812DE9F04107460E468B
:1008E00014463846FFF79CFE05461DB10EB1EC8359
:1008F00000E0AC83BDE8F08170B506460D46304699
:10090000FFF78EFE044624B10DB1E08A70BDA08AC7
:10091000FCE70020FAE72DE9F04180460C46164638
:100920001F464046FFF796FE05465DB12FB1032CEA
:1009300008DC285D3043285504E0032C02DC285DE8
:10094000B0432855BDE8F0812DE9F04180460C46C2
:1009500016461F464046FFF77DFE05469DB14FB146
:10096000032C10DC05F11000005D304305F110018F
:10097000085508E0032C06DC05F11000005DB043CB
:1009800005F110010855BDE8F0812DE9F041074659
:100990000C4615463846FFF75DFE064626B1032C89
:1009A00002DC06F118000555BDE8F0812DE9F041A3
:1009B00007460C4615463846FFF74CFE064626B15C
:1009C000032C02DC06F11C000555BDE8F08170B572
:1009D00006460C463046FFF73DFE054655B1032C52
:1009E00008DC05F11400005D70BD000000C00920A6
:1009F000908002400020F7E7002100E0491C81427E
:100A0000FCD3704710B504460A2C65D2DFE804F029
:100A10006405101B26303A444E5801221107104637
:100A2000FFF732FE4FF080510120FFF74BFE53E0FD
:100A3000012251071046FFF727FE4FF00051012019
:100A4000FFF740FE48E00122D1071046FFF71CFEE9
:100A50004FF000410120FFF735FE3DE00122042167
:100A60000220FFF711FE04210220FFF72BFE33E0E6
:100A7000012208210220FFF707FE08210220FFF7CC
:100A800021FE29E0012210210220FFF7FDFD1021A7
:100A90000220FFF717FE1FE0012220210220FFF7AE
:100AA000F3FD20210220FFF70DFE15E00122402179
:100AB0000220FFF7E9FD40210220FFF703FE0BE0D3
:100AC00001224FF030411046FFF7DEFD01227C216C
:100AD0000220FFF7D9FD00BF00BF10BD10B50446CE
:100AE0000A2C3BD2DFE804F03A050B11171C212633
:100AF0002B304FF080510120FFF7DAFD2EE04FF050
:100B000000510120FFF7D4FD28E04FF00041012003
:100B1000FFF7CEFD22E004210220FFF7C9FD1DE012
:100B200008210220FFF7C4FD18E010210220FFF782
:100B3000BFFD13E020210220FFF7BAFD0EE04021A7
:100B40000220FFF7B5FD09E04FF030410120FFF72B
:100B5000AFFD7C210220FFF7ABFD00BF00BF10BD41
:100B600010B50446092C31D2DFE804F030050B1132
:100B7000171C21262B004FF080510120FFF7A2FD0A
:100B800024E04FF000510120FFF79CFD1EE04FF0E4
:100B900000410120FFF796FD18E004210220FFF735
:100BA00091FD13E008210220FFF78CFD0EE01021DB
:100BB0000220FFF787FD09E020210220FFF782FDD8
:100BC00004E040210220FFF77DFD00BF00BF10BD03
:100BD00010B50446092C16D2DFE804F08D0516275F
:100BE00038495A6B7C006A48007830B90120FFF719
:100BF00075FF01206649087005E00120FFF7B0FF8E
:100C000000206349087076E06248007830B902201D
:100C1000FFF764FF01205F49087005E00220FFF73D
:100C20009FFF00205B49087065E05B48007830B9A1
:100C30000320FFF753FF01205749087005E0032008
:100C4000FFF78EFF00205449087054E053480078A5
:100C500030B90420FFF742FF01205049087005E039
:100C60000420FFF77DFF00204C49087043E04C480A
:100C7000007830B90520FFF731FF0120484908709E
:100C800005E00520FFF76CFF00204549087032E0C1
:100C90004448007830B90620FFF720FF0120414981
:100CA000087005E00620FFF75BFF00203D49087053
:100CB00021E03D48007830B90720FFF70FFF012001
:100CC0003949087005E00720FFF74AFF0020364940
:100CD000087010E03548007830B90820FFF7FEFEB4
:100CE00001203249087005E00820FFF739FF002095
:100CF0002E49087000BF00BF10BD10B54FF08051E5
:100D00000120FFF7D5FC4FF000510120FFF7D0FC88
:100D10004FF000410120FFF7CBFC04210220FFF738
:100D2000C7FC08210220FFF7C3FC10210220FFF7B7
:100D3000BFFC20210220FFF7BBFC40210220FFF76F
:100D4000B7FC10BD10B54FF080510120FFF7BAFC81
:100D50004FF000510120FFF7B5FC4FF0004101209A
:100D6000FFF7B0FC04210220FFF7ACFC08210220B1
:100D7000FFF7A8FC10210220FFF7A4FC202102208D
:100D8000FFF7A0FC40210220FFF79CFC10BD0000F3
:100D900004000010050000100600001007000010FD
:100DA00008000010090000100A0000100B000010DD
:100DB00070B5054635B1012D09D0022D0CD0032D9B
:100DC00014D10EE0022000F075FB04460EE0042072
:100DD00000F070FB044609E02C2000F06BFB044699
:100DE00004E02E2000F066FB044600BF00BF204652
:100DF00070BD2DE9F04781460C464846FFF7D8FF05
:100E00000026054600232946A1FB047C06FB04C2FC
:100E100005FB0321FB4A384601F0F0FF0546284652
:100E2000BDE8F08701464FF0FF30B1F1402F01D10E
:100E300000200DE0F44A914201D1012008E0F34A7C
:100E4000914201D1022003E0F14A914200D10320F6
:100E5000704770B505460C46B5F1402F08D0EA48FA
:100E6000854205D0E948854202D0E948854200D153
:100E700003E0AC21E7A0FFF725FA4CB1012C07D025
:100E8000022C05D0032C03D0042C01D0052C00D15A
:100E900003E0AD21DFA0FFF715FA28680121A1408A
:100EA0000840C6B20EB1012070BD0020FCE770B54D
:100EB00005460C46B5F1402F08D0D348854205D0F1
:100EC000D248854202D0D248854200D103E0CA21EF
:100ED000D0A0FFF7F7F94CB1012C07D0022C05D0B8
:100EE000032C03D0042C01D0052C00D103E0CB212E
:100EF000C8A0FFF7E7F92868211D01228A401040A9
:100F0000C6B20EB1012070BD0020FCE770B50546E9
:100F10000C46B5F1402F08D0BB48854205D0BB48F0
:100F2000854202D0BA48854200D103E0E321B9A04E
:100F3000FFF7C8F94CB1012C07D0022C05D0032CC7
:100F400003D0042C01D0052C00D103E0E421B1A092
:100F5000FFF7B8F90120A040286070BD70B50546C4
:100F60000C46B5F1402F08D0A748854205D0A748C8
:100F7000854202D0A648854200D103E0FA21A5A00F
:100F8000FFF7A0F94CB1012C07D0022C05D0032C9F
:100F900003D0042C01D0052C00D103E0FB219DA03F
:100FA000FFF790F9201D01218140296070BD20B913
:100FB0000A4601231370536003E00A46002353706E
:100FC00000BF70472DE9F04704460D461646B4F1C0
:100FD000402F08D08C48844205D08C48844202D0EF
:100FE0008B48844200D104E040F2311189A0FFF720
:100FF00069F91DB1012D01D000D000D104E04FF4FA
:10100000997184A0FFF75EF9B4F1402F08D1012156
:10101000022000F06CFA0021022000F00BFA22E01E
:101020007948844208D10121042000F060FA0021AF
:10103000042000F0FFF916E07448844208D1012131
:10104000880500F054FA00212C2000F0F3F90AE0A2
:101050006F48844207D10121C80500F048FA0021F9
:101060002E2000F0E7F9A06A20F00300A062A06A39
:10107000A0620020A0602061E060606840F0020093
:101080006060606820F00200606085B9374638789B
:1010900018B97868401EE06017E02046FFF7C2FEEE
:1010A00081467968FFF7A5FE401EE0600DE0B0467E
:1010B000A06A20F00C00A062464698F801000128C2
:1010C00003D1A06A40F00400A0624FF0FF3020601E
:1010D000BDE8F08710B50446B4F1402F08D04A4867
:1010E000844205D04948844202D04948844200D114
:1010F00004E040F27F1147A0FFF7E4F800206060B1
:10110000B4F1402F04D10021022000F0F0F918E0E2
:101110003D48844204D10021042000F0E8F910E0A9
:101120003A48844205D100214FF4800000F0DFF9F5
:1011300007E03748844204D100214FF4800000F0DA
:10114000D6F910BD70B504460D46B4F1402F08D055
:101150002D48844205D02D48844202D02C48844238
:1011600000D104E04FF4D0712AA0FFF7ABF8012DB5
:1011700004D1606840F00100606003E0606820F026
:101180000100606070BD10B50446B4F1402F08D076
:101190001D48844205D01D48844202D01C48844228
:1011A00000D104E04FF4DC711AA0FFF78BF86068FF
:1011B00040F002006060606820F00200606010BDD6
:1011C00070B504460D46B4F1402F08D00E48844255
:1011D00005D00E48844202D00D48844200D104E07C
:1011E00040F2D7110BA0FFF76DF8287940B12879AC
:1011F000012805D02879022802D02879032829D18E
:101200002EE0000040420F00008000400000094036
:10121000004009402E2E5C2E2E5C4875696E735F6F
:101220004E58505F4C5043313736385F4C696272CC
:101230006172795C447269766572735C736F757202
:1012400063655C6C7063313778785F74696D657263
:101250002E6300004FF4EC71AFF24800FFF732F854
:10126000287830B1012807D0022808D003280CD1F3
:1012700008E0A868A0610AE0A868E06107E0A86843
:10128000206204E0A868606201E000BFFEE700BFE2
:101290006069297801EB4102072191408843606130
:1012A000687838B16069297801EB410201219140E9
:1012B00008436061E87840B16069297801EB410139
:1012C000491C01228A4010436061A87840B16069DE
:1012D000297801EB4101891C01228A401043606199
:1012E000E06B2978042202EB4102032191408843FC
:1012F000E063287900F003002978042202EB410121
:101300008840E16B0843E06370BD70B504460E464B
:101310001546B4F1402F08D04348844205D04348D5
:10132000844202D04248844200D105E040F20D21BF
:10133000AFF22010FEF7C6FF36B1012E06D0022E06
:1013400006D0032E08D105E0A56107E0E56105E0C0
:10135000256203E0656201E000BFFEE700BF70BDEB
:1013600070B504460D46B4F1402F08D02E48844293
:1013700005D02E48844202D02D48844200D105E099
:1013800040F23321AFF27410FEF79CFFA06A297877
:1013900001EB4102072191408843A062687838B18F
:1013A000A06A297801EB4102012191400843A06223
:1013B000A87840B1A06A297801EB4101491C0122BB
:1013C0008A401043A062E87840B1A06A297801EB16
:1013D0004101891C01228A401043A06270BD70B592
:1013E00004460D46B4F1402F08D00F48844205D082
:1013F0000E48844202D00E48844200D105E040F2FB
:101400004E21AFF2F010FEF75DFF0DB1012D00D1BE
:1014100005E040F24F21AFF20420FEF753FF0DB973
:10142000E06A70BD206BFCE70080004000000940CE
:101430000040094010B50A46202801D2034601E0C9
:10144000A0F120031946202810D2454B1B68032425
:101450008C40A343434CC4F8A831414B1B6802FAAB
:1014600001F423433F4CC4F8A83111E03C4B1B1D51
:101470001B6803248C40A3433A4CC4F8AC31384B6E
:101480001B1D1B6802FA01F42343364CC4F8AC312F
:1014900010BD0146202903D20A46314B186804E0EA
:1014A000A1F120022E4B1B1D186820FA02F303F055
:1014B0000300704770B506462B4804683046FFF7B6
:1014C000E8FF054635B1012D06D0022D06D0032DCB
:1014D00008D105E0042505E0012503E0022501E02F
:1014E000082500BF00BFB4FBF5F4204670BD0129FC
:1014F00009D11C4AC43212681C4B03401A43194BD1
:10150000C3F8C42009E041B9164AC4321268174B27
:1015100083431A40134BC3F8C4207047002011497D
:10152000C031086030BF70470420114908600020B6
:101530000C49C031086030BF704704200C49086076
:1015400001200849C031086030BF704704200849B5
:10155000086003200349C031086030BF70470000B5
:10156000A8C10F4000C00F4000000010DEF7EFEFF1
:1015700010ED00E000202E4908602E49C1F8480116
:101580002B490C31086070477047012909D1284A5E
:101590000C321268012383401A43264BC3F84C21B6
:1015A00009E041B9224A0C321268012383409A4370
:1015B000204BC3F84C217047012909D11C4A08323D
:1015C0001268012383401A431A4BC3F8482109E0EB
:1015D00041B9174A08321268012383409A43154BD8
:1015E000C3F84821704710B5044600201049086030
:1015F00061782078FFF7E0FFA1782078FFF7C5FF3A
:1016000010BD012181400A4A1160704718B5044697
:1016100064B900208DF8000001208DF80100002041
:101620008DF802006846FFF7DEFF00BF00BF18BD5F
:1016300040C10F4000C00F402DE9F04104460D4667
:10164000C248844200D103E04821C1A0FEF73AFE1F
:101650001DB1CF48854200D803E04921BCA0FEF768
:1016600031FE01210803FFF742FF002020604FF404
:1016700000181820FFF71EFF064605EB851707EB3D
:1016800046007900B0FBF1F0471E48EA0728C4F88D
:101690000080BDE8F08110B50446AC48844200D11A
:1016A00003E06921AAA0FEF70DFE206800F0E060CB
:1016B00018B1206820F0E0602060206820F0FF0072
:1016C0002060206820F40010206000214FF480503A
:1016D000FFF70DFF10BD014601B100BF00BF9B48E1
:1016E000103050F82120C2F30B10704770B505463A
:1016F0000C469648854200D103E0952194A0FEF760
:10170000E1FD6CB1012C0BD0022C09D0032C07D0C9
:10171000042C05D0052C03D0062C01D0072C00D1B9
:1017200003E096218AA0FEF7CDFD286820F0E06056
:101730002860286840EA0460286070BD70B50446DF
:101740000D468248844200D103E0A72180A0FEF725
:10175000B9FD206820F4803020601DB1206840F47D
:101760008030206070BD70B504460D4677488442D5
:1017700000D103E0B92176A0FEF7A4FD206820F493
:10178000001020601DB1206840F40010206070BD82
:1017900070B504460D466D48844200D103E0CB216C
:1017A0006BA0FEF78FFD0DB1012D00D103E0CC2120
:1017B00067A0FEF787FD206820F0006020601DB163
:1017C000206840F00060206070BD70B505460C4692
:1017D00016465E48854200D103E0E4215CA0FEF796
:1017E00071FD7CB1012C0DD0022C0BD0032C09D043
:1017F000042C07D0052C05D0062C03D0072C01D0D3
:10180000082C00D103E0E52151A0FEF75BFDE8685C
:101810000121A1408843E86026B1E9680120A04089
:101820000143E96070BD70B504460D461646474851
:10183000844200D103E0F72145A0FEF743FD05B146
:1018400000BF00BF012E05D120680121A940084337
:1018500020600CE0206800F0E06018B1206820F003
:10186000E060206020680121A9408843206070BDAD
:1018700070B504460D463548844200D104E040F27C
:101880000D1133A0FEF71EFD05B100BF00BF04F12E
:10189000100050F82560C6F30B1070BD2DE9F04123
:1018A00007460E4614462948874200D104E040F21C
:1018B000211127A0FEF706FD06B100BF00BF0CB145
:1018C000012C00D104E040F2231121A0FEF7FAFC24
:1018D00007F1100050F8265014B105F0004501E062
:1018E00005F0804515B10120BDE8F0810020FBE73F
:1018F00010B504461548844200D104E04FF49D71B0
:1019000013A0FEF7DFFC606810BD70B506460C46FC
:101910000E48864200D104E040F24B110CA0FEF7C5
:10192000D1FC0CB1012C00D104E04FF4A67108A049
:10193000FEF7C8FC756814B105F0004501E005F03C
:1019400080450DB1012070BD0020FCE70040034040
:101950002E2E5C2E2E5C4875696E735F4E58505F5C
:101960004C5043313736385F4C6962726172795C32
:10197000447269766572735C736F757263655C6CD3
:101980007063313778785F6164632E630000000014
:10199000400D0300F7480068F7490843F54908601F
:1019A0000846006A40F4001008620846006C40F4E3
:1019B000006008647047EF48006840F02000ED497F
:1019C00008600846006840F4806008600846006CC3
:1019D00040F4805008640846006C40F400500864ED
:1019E0007047E448406940F01000E2494861084609
:1019F000006820F4000008600846006820F080704D
:101A000008600846006E20F0007008660846006E08
:101A100020F0806008667047D648406920F40020B6
:101A2000D44948610846406940F48010486108463E
:101A3000406940F4001048617047CE48406940F466
:101A40000020CC4948610846406920F48010486174
:101A50000846406940F4001048617047C548406935
:101A600040F40020C34948610846406940F48010B2
:101A700048610846406920F400104861704700B58D
:101A8000FFF799FFBB48406920F02000B949486141
:101A90000846406940F4806048610846406D40F463
:101AA000805048650846406D40F40050486508463F
:101AB000406D40F4006048650846406D20F40060C9
:101AC000486500BD00B5FFF776FFAA48406940F0C1
:101AD0002000A84948610846406920F480604861B8
:101AE0000846406D40F4805048650846406D40F41B
:101AF000005048650846406D40F40060486508465F
:101B0000406D20F40060486500BD00B5FFF753FF4D
:101B10009848406940F0200096494861084640696D
:101B200040F4806048610846406D20F4805048656C
:101B30000846406D40F4005048650846406D40F44A
:101B4000006048650846406D20F40060486500BDAF
:101B500000B5FFF730FF8748406940F02000854915
:101B600048610846406940F4806048610846406D1D
:101B700040F4805048650846406D20F400504865A8
:101B80000846406D40F4006048650846406D20F40A
:101B90000060486500BD014600227648406B20F495
:101BA0000010744B5863012906D118464069C0F3F0
:101BB000C05000B100E00122022907D16D48406900
:101BC000C0F3006008B1002200E00122032907D120
:101BD0006848406FC0F3406008B1002200E0012275
:101BE000042907D16348406FC0F3806008B1002228
:101BF00000E001225F48406B40F400105D4B5863E9
:101C0000D0B2704770B598B0054610265948406963
:101C100015905848406D0D905648406F05905548B6
:101C2000006810905348006C08905248006E009075
:101C3000FFF7D7FEFFF7BFFE412D02D1FFF7ECFE05
:101C400006E0422D02D1FFF7F8FE01E0FFF706FFA4
:101C5000FFF715FF0120FFF79EFF0446012C00D17E
:101C600003260220FFF797FF0446012C00D102262D
:101C70000320FFF790FF0446012C00D10126042029
:101C8000FFF789FF0446012C00D10026FFF71AFF59
:101C90000120FFF780FF0446012C00D10726022017
:101CA000FFF779FF0446012C00D106260320FFF739
:101CB00072FF0446012C00D105260420FFF76BFFBC
:101CC0000446012C00D10426FFF71FFF0120FFF777
:101CD00062FF0446012C00D10B260220FFF75BFFB8
:101CE0000446012C00D10A260320FFF754FF0446C6
:101CF000012C00D109260420FFF74DFF0446012CDA
:101D000000D10826FFF724FF0120FFF744FF044617
:101D1000012C00D10F260220FFF73DFF0446012CC5
:101D200000D10E260320FFF736FF0446012C00D118
:101D30000D260420FFF72FFF0446012C00D10C26AE
:101D400015980C4948610D984865059848671098A2
:101D500008600898086400980866304618B070BD9E
:101D60000020064908600649C1F8480103490C31C2
:101D70000860704700C009201000380040C10F40C3
:101D800000C00F40FE48006840F02000FC49086099
:101D90000846006840F4806008600846006C40F423
:101DA000805008640846006C40F400500864704796
:101DB00000B5FFF7E7FFF248406920F02000F04946
:101DC00048610846406940F4806048610846406DBB
:101DD00040F4805048650846406D40F40050486526
:101DE0000846406D40F4006048650846406D20F4A8
:101DF0000060486500BD00B5FFF7C4FFE0484069DA
:101E000040F02000DE4948610846406920F48060C7
:101E100048610846406D40F4805048650846406D72
:101E200040F4005048650846406D40F40060486545
:101E30000846406D20F40060486500BD00B5FFF71E
:101E4000A1FFCF48406940F02000CD4948610846D5
:101E5000406940F4806048610846406D20F480503D
:101E600048650846406D40F4005048650846406D9E
:101E700040F4006048650846406D20F40060486505
:101E800000BD00B5FFF77EFFBD48406940F020006F
:101E9000BB4948610846406940F480604861084693
:101EA000406D40F4805048650846406D20F4005075
:101EB00048650846406D40F4006048650846406D3E
:101EC00020F40060486500BD01460022AC48406B2C
:101ED00020F40010AA4B5863012906D11846406926
:101EE000C0F3C05000B100E00122022907D1A4488C
:101EF0004069C0F3006008B1002200E0012203291C
:101F000007D19F48406FC0F3406008B1002200E055
:101F10000122042907D19A48406FC0F3806008B1BC
:101F2000002200E001229648406B40F40010944BE0
:101F30005863D0B2704770B598B0054610269048E7
:101F4000406915908E48406D0D908D48406F05900A
:101F50008B48006810908A48006C08908848006E92
:101F600000908748406940F0100085494861084664
:101F7000006820F4000008600846006820F08070C7
:101F800008600846006E20F0007008660846006E83
:101F900020F080600866FFF7F5FE412D02D1FFF7C3
:101FA0003BFD06E0422D02D1FFF747FD01E0FFF7C0
:101FB00055FDFFF7FDFE0120FFF786FF0446012CCB
:101FC00000D103260220FFF77FFF0446012C00D139
:101FD00002260320FFF778FF0446012C00D10126DA
:101FE0000420FFF771FF0446012C00D10026FFF703
:101FF00002FF0120FFF768FF0446012C00D10726ED
:102000000220FFF761FF0446012C00D106260320C1
:10201000FFF75AFF0446012C00D105260420FFF7E4
:1020200053FF0446012C00D10426FFF707FF0120CF
:10203000FFF74AFF0446012C00D10B260220FFF7D0
:1020400043FF0446012C00D10A260320FFF73CFF82
:102050000446012C00D109260420FFF735FF044671
:10206000012C00D10826FFF70CFF0120FFF72CFF01
:102070000446012C00D10F260220FFF725FF04465D
:10208000012C00D10E260320FFF71EFF0446012C71
:1020900000D10D260420FFF717FF0446012C00D1C4
:1020A0000C261598364948610D984865059848678B
:1020B000109808600898086400980866304618B0C0
:1020C00070BD30B505464320FFF735FF0446AC42EE
:1020D00001D1204630BD5CB92A480078401C29490E
:1020E000087008460078032801D100200870A0E09D
:1020F000012C06D12448007880F0010022490870A4
:1021000097E0042C01D0052C29D1042C05D11F48BF
:10211000007880F001001D490870052C05D11C488D
:10212000007880F001001A490870184800780128EA
:1021300006D11748007818B901201649087078E0D0
:102140001248007838B912480078012803D10220DB
:10215000104908706DE000200E49087069E0082CF5
:1021600001D0092C46D1082C05D10B48007880F00D
:10217000010009490870092C16D1084800780FE0C1
:1021800000C009202D0000102E00001030000010AB
:102190002F0000103100001032000010330000103A
:1021A00080F00100FE490870FE480078012807D140
:1021B000FB480078012803D10320FB49087038E070
:1021C000F8480078012806D1F548007818B90120B0
:1021D000F54908702DE0F348007838B9F0480078E8
:1021E000012803D10220F049087022E00020EE49C6
:1021F00008701EE00D2C09D10020EC490870EC4855
:10220000007880F00100EA49087012E0102C10D02C
:102210002046E21704EB92729210A4EB820321464F
:10222000E21704EB9272921003EB4202521EDF4B54
:102230001A7020464EE7DF4800680A2807DB0020B6
:10224000DC490860DC480068401CDB490860DA486B
:102250000068022808DBD7480068042804DB002057
:10226000D5490860D3490860D44800680A2807DBCC
:102270000020D2490860D2480068401CD04908605C
:10228000CF480068062804DB0020CD490860CB4910
:102290000860C8480068002811DAC748006830B9EB
:1022A0000220C54908600320C249086007E0C2480F
:1022B0000068401EC04908600920BE490860BF4848
:1022C0000068002811DABE48006830B90520BC4912
:1022D00008600920B949086007E00920B74908608B
:1022E000B7480068401EB64908607047B5480068A6
:1022F00040F08050B3498039C1F880000846006A38
:1023000020F4801008620846006A20F40000086289
:102310000846006A20F0807008620846006A20F0D3
:10232000007008620846006A20F08060086270470A
:1023300000B5A0B000220023A248803840691D905B
:10234000A0488038406D15909E488038406F0D90B1
:102350009C481430006805909A48803800681890AE
:1023600098488038006C109096488038006E08902D
:1023700094488038D0F880000090FFF7B7FF91486C
:102380008038406BC0F3C05060B98F480078012896
:102390005BD088480068401E8649086001208A4951
:1023A000087052E087488038406BC0F3006060B925
:1023B00085480078022848D080480068401C7F4942
:1023C00008600220804908703FE07E488038406BFA
:1023D000C0F3406060B97C480078032835D0754868
:1023E0000068401C734908600320774908702CE09E
:1023F00074488038406BC0F3806060B972480078E0
:10240000042822D06D480068401E6C4908600420F2
:102410006D49087019E06B488038406BC0F300507C
:1024200080B96948007805280FD00020624908600B
:102430006049086062490860604908600520624997
:10244000087002E00020604908701D985D498039DD
:102450004861159848650D984867059859491431A1
:1024600008601898574980390860109808640898DF
:1024700008660098C1F8800020B000BD10B50021AA
:102480004FF04020FEF742FD4C480068401C4B498D
:102490000860084600680A2807D149480068401CBF
:1024A00047490860002045490860454800680628FB
:1024B00007D140480068401C3E4908600020404960
:1024C00008603C4800680A2807D13B480068401C67
:1024D00039490860002037490860374800680228F9
:1024E0000CD134480068042808D100203249086023
:1024F00030490860324908603049086010BD012049
:102500003249087064204860002031490870012079
:102510004870C8700020887008712E488860704725
:1025200010B500202C490860012202212B48FFF73A
:10253000B5F9E0B102212948FFF79AF94FF4C871C3
:1025400090FBF1F0244908600846006818B90120A2
:102550002349087002E0002021490870162001215B
:102560008140204A430942F8231000BF00BF10BD3C
:1025700010B501221C490020FEF786F80122510502
:102580001046FEF781F801224FF460510220FEF759
:102590007BF801224FF0C0610320FEF775F810BDF3
:1025A000330000103200001034000010360000101C
:1025B00037000010200000101C0000102800001040
:1025C0002400001080C009202C0000103C000010E6
:1025D00044000010C0270900140000100040034010
:1025E0003800001080E100E0300CB80170B50446FE
:1025F000002500BF80E020210020FEF759F84FF4AD
:1026000080610020FEF75EF84FF400010020FEF725
:102610004FF84FF080710020FEF754F8F84800683A
:102620008108F84800680A2202EB0010B1FBF0F6BE
:102630003046FEF7E1F920210020FEF743F84FF481
:1026400080610020FEF734F84FF400010020FEF70F
:102650002FF84FF080710020FEF734F8E84800684A
:102660008108E84800680A2202EB0010B1FBF0F68E
:102670003046FEF7C1F920210020FEF723F84FF481
:1026800080610020FEF714F84FF400010020FEF7EF
:1026900019F84FF080710020FEF70AF8D84800685A
:1026A0008108D84800680A2202EB0010B1FBF0F65E
:1026B0003046FEF7A1F920210020FDF7F9FF4FF485
:1026C00080610020FDF7FEFF4FF400010020FDF7C0
:1026D000F9FF4FF080710020FDF7EAFFC84800685D
:1026E0008108C84800680A2202EB0010B1FBF0F62E
:1026F0003046FEF781F96D1CB5EB840FFFF47BAF1C
:1027000070BD10B50122C0490020FDF7BDFF0122B8
:1027100051051046FDF7B8FF01224FF46051022029
:10272000FDF7B2FF01224FF0C0610320FDF7ACFFBF
:1027300010BD70B505460C464FF400010020FDF7B2
:10274000C1FF4FF080710020FDF7BCFF4FF4001176
:102750000120FDF7B7FF4FF400610220FDF7B2FF43
:102760004FF480510220FDF7ADFF4FF400510220DD
:10277000FDF7A8FF4FF000710320FDF7A3FF4FF016
:1027800080610320FDF79EFF092D36D2DFE805F0BA
:1027900035050B11171D23292F004FF400010020D0
:1027A000FDF786FF29E04FF080710020FDF780FFE4
:1027B00023E04FF400110120FDF77AFF1DE04FF4F4
:1027C00000610220FDF774FF17E04FF480510220F2
:1027D000FDF76EFF11E04FF400510220FDF768FF96
:1027E0000BE04FF000710320FDF762FF05E04FF0B2
:1027F00080610320FDF75CFF00BF00BF8348406994
:1028000040F48060814948610846406920F4806056
:1028100048614FF400010020FDF74AFF4FF080713E
:102820000020FDF745FF4FF400110120FDF740FFA8
:102830004FF400610220FDF73BFF4FF4805102206E
:10284000FDF736FF4FF400510220FDF731FF4FF046
:1028500000710320FDF72CFF4FF080610320FDF78E
:1028600027FF20210020FDF723FF20210020FDF776
:1028700029FF0A2C15D2DFE804F005152030455A4F
:102880006F848FA44FF0C0710020FDF71BFF4FF441
:1028900000110120FDF716FF4FF460510220FDF7F3
:1028A00011FFA3E04FF080710020FDF70BFF4FF404
:1028B00000110120FDF706FF98E04FF0C0710020E5
:1028C000FDF700FF4FF4C0510220FDF7FBFE4FF073
:1028D00000710320FDF7F6FE88E04FF0C071002084
:1028E000FDF7F0FE4FF400110120FDF7EBFE4FF471
:1028F00000610220FDF7E6FE4FF000710320FDF7B6
:10290000E1FE73E04FF080710020FDF7DBFE4FF435
:1029100000110120FDF7D6FE4FF400510220FDF713
:10292000D1FE4FF000710320FDF7CCFE5EE04FF4C6
:1029300000010020FDF7C6FE4FF400110120FDF755
:10294000C1FE4FF420510220FDF7BCFE4FF0007194
:102950000320FDF7B7FE49E04FF400010020FDF72A
:10296000B1FE4FF400110120FDF7ACFE4FF46051B1
:102970000220FDF7A7FE4FF000710320FDF7A2FE35
:1029800034E04FF0C0710020FDF79CFE4FF40011C1
:102990000120FDF797FE29E04FF0C0710020FDF700
:1029A00091FE4FF400110120FDF78CFE4FF46051B1
:1029B0000220FDF787FE4FF000710320FDF782FE35
:1029C00014E04FF0C0710020FDF77CFE4FF40011C1
:1029D0000120FDF777FE4FF400510220FDF772FE53
:1029E0004FF000710320FDF76DFE00BF00BF2021F6
:1029F0000020FDF75DFE20210020FDF763FE70BD85
:102A00000000001014000010300CB80100C00920B4
:102A100010B5E74801780820FFF78BFE41F28830B7
:102A2000FDF7EAFFE34801780720FFF782FE41F255
:102A30008830FDF7E1FFE04801780620FFF779FED6
:102A400041F28830FDF7D8FFDC4801780520FFF718
:102A500070FE41F28830FDF7CFFFD94801780120A0
:102A6000FFF767FE41F28830FDF7C6FFD5480178D1
:102A70000220FFF75EFE41F28830FDF7BDFFD2482D
:102A800001780320FFF755FE41F28830FDF7B4FFCF
:102A9000CE4801780420FFF74CFE41F28830FDF764
:102AA000ABFF10BD10B501224FF030411046FDF7CD
:102AB000EBFD01227C210220FDF7E6FD10BD10B5E3
:102AC0000446012C04DB4FF080510120FDF7F0FD9E
:102AD000022C04DB4FF000510120FDF7E9FD032C2F
:102AE00004DB4FF000410120FDF7E2FD042C03DB85
:102AF00004210220FDF7DCFD052C03DB0821022068
:102B0000FDF7D6FD062C03DB10210220FDF7D0FDDA
:102B1000072C03DB20210220FDF7CAFD082C03DB74
:102B200040210220FDF7C4FD012C04DA4FF0805152
:102B30000120FDF7C7FD022C04DA4FF000510120FF
:102B4000FDF7C0FD032C04DA4FF000410120FDF732
:102B5000B9FD042C03DA04210220FDF7B3FD052C96
:102B600003DA08210220FDF7ADFD062C03DA10215F
:102B70000220FDF7A7FD072C03DA20210220FDF734
:102B8000A1FD082C03DA40210220FDF79BFD10BDBA
:102B900010B50446012C03DB40210220FDF788FD1F
:102BA000022C03DB20210220FDF782FD032C03DB36
:102BB00010210220FDF77CFD042C03DB08210220FC
:102BC000FDF776FD052C03DB04210220FDF770FDE7
:102BD000062C04DB4FF000410120FDF769FD072CB6
:102BE00004DB4FF000510120FDF762FD082C04DBEF
:102BF0004FF080510120FDF75BFD012C03DA4021ED
:102C00000220FDF75FFD022C03DA20210220FDF7F0
:102C100059FD032C03DA10210220FDF753FD042C8B
:102C200003DA08210220FDF74DFD052C03DA04210B
:102C30000220FDF747FD062C04DA4FF00041012089
:102C4000FDF740FD072C04DA4FF000510120FDF79D
:102C500039FD082C04DA4FF080510120FDF732FDD8
:102C600010BD10B50020FEF7CCFC5948007808B91B
:102C7000012000E000205649087010BD1CB5FFF788
:102C800077FCFFF73EFDFFF731FBFFF70BFFFFF788
:102C900067F801220A210220FDF702FB0020FEF75F
:102CA000B5FC122000F078F8FFF729FC494A002112
:102CB0004FF04020FEF786F947494FF04020FEF7DD
:102CC0007FFA012000F068F801214FF04020FEF764
:102CD00039FA01208DF8020000208DF804008DF8EB
:102CE000030019208DF8010000208DF800006846CF
:102CF000FDF7C4FA39493A48FEF79EFC0122022149
:102D00003748FEF762FD012202213548FEF78BFDB0
:102D100016200921002807DACA06140E314A00F0ED
:102D20000F031B1FD45403E0CA06130E2E4A13547C
:102D300000BF30E026480078F8B9FFF7F9FAFFF74E
:102D40007AFA2A480078FFF7BCF928490870FFF79B
:102D50005FFE1C48007860B12548007820B1254806
:102D60000078FFF7ACFE16E022480078FFF710FF6E
:102D700011E00020FFF7A3FE0DE001211848FEF747
:102D8000B5FC162000F008F81B480078012802D096
:102D90000120FFF72BFCCDE700F01F02012191403D
:102DA0004209920002F1E022C2F8001170470000CF
:102DB0002800001024000010200000101C0000104B
:102DC0002D0000102E000010310000103400001003
:102DD000180000103C00001044000010400D0300DB
:102DE0000040034018ED00E000E400E03500001072
:102DF00037000010360000103800001053EA020CB3
:102E000000F069802DE9F04B4FF00006002B1FBF4A
:102E1000B3FA83F503FA05F424FA05F65E4012BF0F
:102E20001643B2FA82F502FA05F4C5F120051EBF79
:102E300022FA05FC44EA0C04203556EA044C4FEA19
:102E4000144418BF641C4FF000084FF00009904272
:102E500071EB030C39D3002919BFB1FA81F701FADC
:102E600007F6B0FA80F700FA07F6C7F120071EBF91
:102E700020FA07FC46EA0C062037B6FBF4FCA7EB69
:102E80000507103F07F01F0BCBF120060CFA0BFBD8
:102E90002CFA06F644BFB3460026202FA4BF5E4698
:102EA0004FF0000B5BEA060C08BF4FF0010B19EB6B
:102EB0000B09ABFB027C48EB0608C01B06FB02CCEF
:102EC0000BFB03CC71EB0C01C1E70B4602464146FC
:102ED0004846BDE8F08B13B54FF000004FF00001FD
:102EE000AFF30080BDE81C4070477546FDF7F8F968
:102EF000AE4605006946534620F00700854618B0E7
:102F000020B5FDF73FF9BDE820404FF000064FF037
:102F100000074FF000084FF0000B21F00701AC460E
:102F2000ACE8C009ACE8C009ACE8C009ACE8C0092D
:102F30008D467047542F0000000000104400000030
:102F400008010000982F0000440000106C020000EF
:102F50002401000000A24A0400000000000000005C
:102F600000000000000000002C0100000000000034
:102F70000000000000000000000000000000000051
:102F80000000000000000000001000000000000031
:082F9000000000000000000039
:04000005000000CD2A
:00000001FF
